{
  "_format": "hh-sol-artifact-1",
  "contractName": "Lottery",
  "sourceName": "contracts/Lottery.sol",
  "abi": [
    {
      "inputs": [],
      "stateMutability": "nonpayable",
      "type": "constructor"
    },
    {
      "anonymous": false,
      "inputs": [
        {
          "indexed": false,
          "internalType": "uint32",
          "name": "proposalIndex",
          "type": "uint32"
        }
      ],
      "name": "ProposalInitiated",
      "type": "event"
    },
    {
      "inputs": [
        {
          "internalType": "uint32",
          "name": "proindex",
          "type": "uint32"
        }
      ],
      "name": "approve",
      "outputs": [],
      "stateMutability": "nonpayable",
      "type": "function"
    },
    {
      "inputs": [],
      "name": "cons",
      "outputs": [
        {
          "internalType": "uint32",
          "name": "",
          "type": "uint32"
        }
      ],
      "stateMutability": "view",
      "type": "function"
    },
    {
      "inputs": [
        {
          "internalType": "uint32",
          "name": "i",
          "type": "uint32"
        }
      ],
      "name": "getProduration",
      "outputs": [
        {
          "internalType": "uint256",
          "name": "",
          "type": "uint256"
        }
      ],
      "stateMutability": "view",
      "type": "function"
    },
    {
      "inputs": [
        {
          "internalType": "uint32",
          "name": "i",
          "type": "uint32"
        }
      ],
      "name": "getProindex",
      "outputs": [
        {
          "internalType": "uint32",
          "name": "",
          "type": "uint32"
        }
      ],
      "stateMutability": "view",
      "type": "function"
    },
    {
      "inputs": [
        {
          "internalType": "uint32",
          "name": "i",
          "type": "uint32"
        }
      ],
      "name": "getProinvalid",
      "outputs": [
        {
          "internalType": "uint32",
          "name": "",
          "type": "uint32"
        }
      ],
      "stateMutability": "view",
      "type": "function"
    },
    {
      "inputs": [
        {
          "internalType": "uint32",
          "name": "i",
          "type": "uint32"
        }
      ],
      "name": "getProname",
      "outputs": [
        {
          "internalType": "string",
          "name": "",
          "type": "string"
        }
      ],
      "stateMutability": "view",
      "type": "function"
    },
    {
      "inputs": [
        {
          "internalType": "uint32",
          "name": "i",
          "type": "uint32"
        }
      ],
      "name": "getProproposer",
      "outputs": [
        {
          "internalType": "address",
          "name": "",
          "type": "address"
        }
      ],
      "stateMutability": "view",
      "type": "function"
    },
    {
      "inputs": [
        {
          "internalType": "uint32",
          "name": "i",
          "type": "uint32"
        }
      ],
      "name": "getProreward",
      "outputs": [
        {
          "internalType": "uint32",
          "name": "",
          "type": "uint32"
        }
      ],
      "stateMutability": "view",
      "type": "function"
    },
    {
      "inputs": [
        {
          "internalType": "uint32",
          "name": "i",
          "type": "uint32"
        }
      ],
      "name": "getProstartTime",
      "outputs": [
        {
          "internalType": "uint256",
          "name": "",
          "type": "uint256"
        }
      ],
      "stateMutability": "view",
      "type": "function"
    },
    {
      "inputs": [
        {
          "internalType": "uint32",
          "name": "i",
          "type": "uint32"
        }
      ],
      "name": "getProvotecount",
      "outputs": [
        {
          "internalType": "int256",
          "name": "",
          "type": "int256"
        }
      ],
      "stateMutability": "view",
      "type": "function"
    },
    {
      "inputs": [
        {
          "internalType": "address",
          "name": "i",
          "type": "address"
        }
      ],
      "name": "getVoternum",
      "outputs": [
        {
          "internalType": "uint32",
          "name": "",
          "type": "uint32"
        }
      ],
      "stateMutability": "view",
      "type": "function"
    },
    {
      "inputs": [],
      "name": "helloworld",
      "outputs": [
        {
          "internalType": "string",
          "name": "",
          "type": "string"
        }
      ],
      "stateMutability": "pure",
      "type": "function"
    },
    {
      "inputs": [],
      "name": "init",
      "outputs": [],
      "stateMutability": "nonpayable",
      "type": "function"
    },
    {
      "inputs": [],
      "name": "manager",
      "outputs": [
        {
          "internalType": "address",
          "name": "",
          "type": "address"
        }
      ],
      "stateMutability": "view",
      "type": "function"
    },
    {
      "inputs": [
        {
          "internalType": "uint32",
          "name": "proindex",
          "type": "uint32"
        }
      ],
      "name": "object",
      "outputs": [],
      "stateMutability": "nonpayable",
      "type": "function"
    },
    {
      "inputs": [],
      "name": "proposal_num",
      "outputs": [
        {
          "internalType": "uint32",
          "name": "",
          "type": "uint32"
        }
      ],
      "stateMutability": "view",
      "type": "function"
    },
    {
      "inputs": [
        {
          "internalType": "string",
          "name": "n",
          "type": "string"
        }
      ],
      "name": "propose",
      "outputs": [],
      "stateMutability": "nonpayable",
      "type": "function"
    },
    {
      "inputs": [],
      "name": "reward",
      "outputs": [],
      "stateMutability": "nonpayable",
      "type": "function"
    },
    {
      "inputs": [],
      "name": "studentERC20",
      "outputs": [
        {
          "internalType": "contract MyERC20",
          "name": "",
          "type": "address"
        }
      ],
      "stateMutability": "view",
      "type": "function"
    },
    {
      "inputs": [],
      "name": "votelimit",
      "outputs": [
        {
          "internalType": "uint32",
          "name": "",
          "type": "uint32"
        }
      ],
      "stateMutability": "view",
      "type": "function"
    },
    {
      "inputs": [
        {
          "internalType": "address",
          "name": "",
          "type": "address"
        }
      ],
      "name": "voters",
      "outputs": [
        {
          "internalType": "uint32",
          "name": "votenum",
          "type": "uint32"
        },
        {
          "internalType": "address",
          "name": "voter",
          "type": "address"
        }
      ],
      "stateMutability": "view",
      "type": "function"
    }
  ],
  "bytecode": "0x60806040523480156200001157600080fd5b506040516200002090620000cf565b6200002b9062000161565b604051809103906000f08015801562000048573d6000803e3d6000fd5b506000806101000a81548173ffffffffffffffffffffffffffffffffffffffff021916908373ffffffffffffffffffffffffffffffffffffffff16021790555033600260006101000a81548173ffffffffffffffffffffffffffffffffffffffff021916908373ffffffffffffffffffffffffffffffffffffffff160217905550620001a9565b6118e38062001c6d83390190565b6000620000ec60048362000198565b91507f6e616d65000000000000000000000000000000000000000000000000000000006000830152602082019050919050565b60006200012e60068362000198565b91507f73796d626f6c00000000000000000000000000000000000000000000000000006000830152602082019050919050565b600060408201905081810360008301526200017c81620000dd565b9050818103602083015262000191816200011f565b9050919050565b600082825260208201905092915050565b611ab480620001b96000396000f3fe608060405234801561001057600080fd5b50600436106101375760003560e01c80638607a13c116100b8578063d2c0ec0e1161007c578063d2c0ec0e14610379578063d732887314610397578063d98be4fd146103c7578063e1c7392a146103e3578063f850562c146103ed578063fe0f4ff41461041d57610137565b80638607a13c1461029c5780639f556c73146102cc578063a3ec138d146102fc578063a8bcba7b1461032d578063aa98df391461035d57610137565b8063481c6a75116100ff578063481c6a75146101e257806359d71219146102005780636c3fbb2d1461021e5780637667e7d01461023c5780637fc81c861461026c57610137565b806307894bc61461013c57806313dce7c71461016c578063228cb7331461019c5780632f2f4859146101a6578063465c9df4146101c4575b600080fd5b61015660048036038101906101519190611382565b610439565b60405161016391906115ce565b60405180910390f35b61018660048036038101906101819190611382565b610465565b604051610193919061156c565b60405180910390f35b6101a4610519565b005b6101ae610663565b6040516101bb919061156c565b60405180910390f35b6101cc6106a0565b6040516101d991906115e9565b60405180910390f35b6101ea6106a5565b6040516101f791906114e4565b60405180910390f35b6102086106cb565b60405161021591906115e9565b60405180910390f35b6102266106d0565b6040516102339190611536565b60405180910390f35b61025660048036038101906102519190611382565b6106f4565b6040516102639190611551565b60405180910390f35b61028660048036038101906102819190611382565b610720565b60405161029391906115e9565b60405180910390f35b6102b660048036038101906102b19190611382565b61075c565b6040516102c391906115ce565b60405180910390f35b6102e660048036038101906102e191906112ef565b610788565b6040516102f391906115e9565b60405180910390f35b610316600480360381019061031191906112ef565b6107e4565b604051610324929190611604565b60405180910390f35b61034760048036038101906103429190611382565b610838565b60405161035491906115e9565b60405180910390f35b61037760048036038101906103729190611341565b6108a4565b005b610381610bbc565b60405161038e91906115e9565b60405180910390f35b6103b160048036038101906103ac9190611382565b610bd2565b6040516103be91906115e9565b60405180910390f35b6103e160048036038101906103dc9190611382565b610c0e565b005b6103eb610e41565b005b61040760048036038101906104029190611382565b610f26565b60405161041491906114e4565b60405180910390f35b61043760048036038101906104329190611382565b610f72565b005b6000600160008363ffffffff1663ffffffff168152602001908152602001600020600201549050919050565b6060600160008363ffffffff1663ffffffff16815260200190815260200160002060030180546104949061193c565b80601f01602080910402602001604051908101604052809291908181526020018280546104c09061193c565b801561050d5780601f106104e25761010080835404028352916020019161050d565b820191906000526020600020905b8154815290600101906020018083116104f057829003601f168201915b50505050509050919050565b60005b600260149054906101000a900463ffffffff1663ffffffff168163ffffffff16101561066057600160008263ffffffff1663ffffffff16815260200190815260200160002060020154600160008363ffffffff1663ffffffff16815260200190815260200160002060010154610592919061173e565b421180156105c257506000600160008363ffffffff1663ffffffff16815260200190815260200160002060040154135b801561060657506000600160008363ffffffff1663ffffffff16815260200190815260200160002060050160009054906101000a900463ffffffff1663ffffffff16145b1561064d5760018060008363ffffffff1663ffffffff16815260200190815260200160002060050160006101000a81548163ffffffff021916908363ffffffff1602179055505b80806106589061196e565b91505061051c565b50565b60606040518060400160405280600b81526020017f68656c6c6f20776f726c64000000000000000000000000000000000000000000815250905090565b600a81565b600260009054906101000a900473ffffffffffffffffffffffffffffffffffffffff1681565b600381565b60008054906101000a900473ffffffffffffffffffffffffffffffffffffffff1681565b6000600160008363ffffffff1663ffffffff168152602001908152602001600020600401549050919050565b6000600160008363ffffffff1663ffffffff16815260200190815260200160002060050160009054906101000a900463ffffffff169050919050565b6000600160008363ffffffff1663ffffffff168152602001908152602001600020600101549050919050565b6000600360008373ffffffffffffffffffffffffffffffffffffffff1673ffffffffffffffffffffffffffffffffffffffff16815260200190815260200160002060000160009054906101000a900463ffffffff169050919050565b60036020528060005260406000206000915090508060000160009054906101000a900463ffffffff16908060000160049054906101000a900473ffffffffffffffffffffffffffffffffffffffff16905082565b6000600160008363ffffffff1663ffffffff16815260200190815260200160002060020154600160008463ffffffff1663ffffffff1681526020019081526020016000206001015461088a919061173e565b42111561089a576001905061089f565b600090505b919050565b60008054906101000a900473ffffffffffffffffffffffffffffffffffffffff1673ffffffffffffffffffffffffffffffffffffffff166323b872dd3330600a6040518463ffffffff1660e01b8152600401610902939291906114ff565b602060405180830381600087803b15801561091c57600080fd5b505af1158015610930573d6000803e3d6000fd5b505050506040513d601f19601f820116820180604052508101906109549190611318565b50600260149054906101000a900463ffffffff1660016000600260149054906101000a900463ffffffff1663ffffffff1663ffffffff16815260200190815260200160002060000160006101000a81548163ffffffff021916908363ffffffff1602179055503360016000600260149054906101000a900463ffffffff1663ffffffff1663ffffffff16815260200190815260200160002060000160046101000a81548173ffffffffffffffffffffffffffffffffffffffff021916908373ffffffffffffffffffffffffffffffffffffffff1602179055504260016000600260149054906101000a900463ffffffff1663ffffffff1663ffffffff1681526020019081526020016000206001018190555061012c60016000600260149054906101000a900463ffffffff1663ffffffff1663ffffffff168152602001908152602001600020600201819055508060016000600260149054906101000a900463ffffffff1663ffffffff1663ffffffff1681526020019081526020016000206003019080519060200190610ae99291906111a5565b50600060016000600260149054906101000a900463ffffffff1663ffffffff1663ffffffff16815260200190815260200160002060040181905550600060016000600260149054906101000a900463ffffffff1663ffffffff1663ffffffff16815260200190815260200160002060050160006101000a81548163ffffffff021916908363ffffffff1602179055506002601481819054906101000a900463ffffffff1680929190610b9a9061196e565b91906101000a81548163ffffffff021916908363ffffffff1602179055505050565b600260149054906101000a900463ffffffff1681565b6000600160008363ffffffff1663ffffffff16815260200190815260200160002060000160009054906101000a900463ffffffff169050919050565b60008054906101000a900473ffffffffffffffffffffffffffffffffffffffff1673ffffffffffffffffffffffffffffffffffffffff166323b872dd3330600a6040518463ffffffff1660e01b8152600401610c6c939291906114ff565b602060405180830381600087803b158015610c8657600080fd5b505af1158015610c9a573d6000803e3d6000fd5b505050506040513d601f19601f82011682018060405250810190610cbe9190611318565b506000600360003373ffffffffffffffffffffffffffffffffffffffff1673ffffffffffffffffffffffffffffffffffffffff16815260200190815260200160002090506000600160008463ffffffff1663ffffffff1681526020019081526020016000209050600363ffffffff168260000160009054906101000a900463ffffffff1663ffffffff1610610d88576040517f08c379a0000000000000000000000000000000000000000000000000000000008152600401610d7f906115ae565b60405180910390fd5b80600201548160010154610d9c919061173e565b421115610dde576040517f08c379a0000000000000000000000000000000000000000000000000000000008152600401610dd59061158e565b60405180910390fd5b60018260000160008282829054906101000a900463ffffffff16610e029190611794565b92506101000a81548163ffffffff021916908363ffffffff1602179055506001816004016000828254610e3591906117ce565b92505081905550505050565b33600360003373ffffffffffffffffffffffffffffffffffffffff1673ffffffffffffffffffffffffffffffffffffffff16815260200190815260200160002060000160046101000a81548173ffffffffffffffffffffffffffffffffffffffff021916908373ffffffffffffffffffffffffffffffffffffffff1602179055506000600360003373ffffffffffffffffffffffffffffffffffffffff1673ffffffffffffffffffffffffffffffffffffffff16815260200190815260200160002060000160006101000a81548163ffffffff021916908363ffffffff160217905550565b6000600160008363ffffffff1663ffffffff16815260200190815260200160002060000160049054906101000a900473ffffffffffffffffffffffffffffffffffffffff169050919050565b60008054906101000a900473ffffffffffffffffffffffffffffffffffffffff1673ffffffffffffffffffffffffffffffffffffffff166323b872dd3330600a6040518463ffffffff1660e01b8152600401610fd0939291906114ff565b602060405180830381600087803b158015610fea57600080fd5b505af1158015610ffe573d6000803e3d6000fd5b505050506040513d601f19601f820116820180604052508101906110229190611318565b506000600360003373ffffffffffffffffffffffffffffffffffffffff1673ffffffffffffffffffffffffffffffffffffffff16815260200190815260200160002090506000600160008463ffffffff1663ffffffff1681526020019081526020016000209050600363ffffffff168260000160009054906101000a900463ffffffff1663ffffffff16106110ec576040517f08c379a00000000000000000000000000000000000000000000000000000000081526004016110e3906115ae565b60405180910390fd5b80600201548160010154611100919061173e565b421115611142576040517f08c379a00000000000000000000000000000000000000000000000000000000081526004016111399061158e565b60405180910390fd5b60018260000160008282829054906101000a900463ffffffff166111669190611794565b92506101000a81548163ffffffff021916908363ffffffff160217905550600181600401600082825461119991906116aa565b92505081905550505050565b8280546111b19061193c565b90600052602060002090601f0160209004810192826111d3576000855561121a565b82601f106111ec57805160ff191683800117855561121a565b8280016001018555821561121a579182015b828111156112195782518255916020019190600101906111fe565b5b509050611227919061122b565b5090565b5b8082111561124457600081600090555060010161122c565b5090565b600061125b6112568461165e565b61162d565b90508281526020810184848401111561127357600080fd5b61127e8482856118fa565b509392505050565b60008135905061129581611a39565b92915050565b6000815190506112aa81611a50565b92915050565b600082601f8301126112c157600080fd5b81356112d1848260208601611248565b91505092915050565b6000813590506112e981611a67565b92915050565b60006020828403121561130157600080fd5b600061130f84828501611286565b91505092915050565b60006020828403121561132a57600080fd5b60006113388482850161129b565b91505092915050565b60006020828403121561135357600080fd5b600082013567ffffffffffffffff81111561136d57600080fd5b611379848285016112b0565b91505092915050565b60006020828403121561139457600080fd5b60006113a2848285016112da565b91505092915050565b6113b481611862565b82525050565b6113c3816118c4565b82525050565b6113d281611880565b82525050565b60006113e38261168e565b6113ed8185611699565b93506113fd818560208601611909565b61140681611a28565b840191505092915050565b600061141e601183611699565b91507f566f74696e672074696d652069732075700000000000000000000000000000006000830152602082019050919050565b600061145e602b83611699565b91507f546865206e756d626572206f6620766f7465732065786365656473207468652060008301527f7570706572206c696d69740000000000000000000000000000000000000000006020830152604082019050919050565b6114c0816118aa565b82525050565b6114cf816118e8565b82525050565b6114de816118b4565b82525050565b60006020820190506114f960008301846113ab565b92915050565b600060608201905061151460008301866113ab565b61152160208301856113ab565b61152e60408301846114c6565b949350505050565b600060208201905061154b60008301846113ba565b92915050565b600060208201905061156660008301846113c9565b92915050565b6000602082019050818103600083015261158681846113d8565b905092915050565b600060208201905081810360008301526115a781611411565b9050919050565b600060208201905081810360008301526115c781611451565b9050919050565b60006020820190506115e360008301846114b7565b92915050565b60006020820190506115fe60008301846114d5565b92915050565b600060408201905061161960008301856114d5565b61162660208301846113ab565b9392505050565b6000604051905081810181811067ffffffffffffffff82111715611654576116536119f9565b5b8060405250919050565b600067ffffffffffffffff821115611679576116786119f9565b5b601f19601f8301169050602081019050919050565b600081519050919050565b600082825260208201905092915050565b60006116b582611880565b91506116c083611880565b9250817f7fffffffffffffffffffffffffffffffffffffffffffffffffffffffffffffff038313600083121516156116fb576116fa61199b565b5b817f80000000000000000000000000000000000000000000000000000000000000000383126000831216156117335761173261199b565b5b828201905092915050565b6000611749826118aa565b9150611754836118aa565b9250827fffffffffffffffffffffffffffffffffffffffffffffffffffffffffffffffff038211156117895761178861199b565b5b828201905092915050565b600061179f826118b4565b91506117aa836118b4565b92508263ffffffff038211156117c3576117c261199b565b5b828201905092915050565b60006117d982611880565b91506117e483611880565b9250827f80000000000000000000000000000000000000000000000000000000000000000182126000841215161561181f5761181e61199b565b5b827f7fffffffffffffffffffffffffffffffffffffffffffffffffffffffffffffff0182136000841216156118575761185661199b565b5b828203905092915050565b600061186d8261188a565b9050919050565b60008115159050919050565b6000819050919050565b600073ffffffffffffffffffffffffffffffffffffffff82169050919050565b6000819050919050565b600063ffffffff82169050919050565b60006118cf826118d6565b9050919050565b60006118e18261188a565b9050919050565b60006118f3826118b4565b9050919050565b82818337600083830152505050565b60005b8381101561192757808201518184015260208101905061190c565b83811115611936576000848401525b50505050565b6000600282049050600182168061195457607f821691505b60208210811415611968576119676119ca565b5b50919050565b6000611979826118b4565b915063ffffffff8214156119905761198f61199b565b5b600182019050919050565b7f4e487b7100000000000000000000000000000000000000000000000000000000600052601160045260246000fd5b7f4e487b7100000000000000000000000000000000000000000000000000000000600052602260045260246000fd5b7f4e487b7100000000000000000000000000000000000000000000000000000000600052604160045260246000fd5b6000601f19601f8301169050919050565b611a4281611862565b8114611a4d57600080fd5b50565b611a5981611874565b8114611a6457600080fd5b50565b611a70816118b4565b8114611a7b57600080fd5b5056fea2646970667358221220c99315a5aa4c4deff41c9976766b2e0608add2e3a76a0199eae97304ff526b5c64736f6c6343000800003360806040523480156200001157600080fd5b50604051620018e3380380620018e3833981810160405281019062000037919062000197565b818181600390805190602001906200005192919062000075565b5080600490805190602001906200006a92919062000075565b50505050506200033b565b8280546200008390620002a7565b90600052602060002090601f016020900481019282620000a75760008555620000f3565b82601f10620000c257805160ff1916838001178555620000f3565b82800160010185558215620000f3579182015b82811115620000f2578251825591602001919060010190620000d5565b5b50905062000102919062000106565b5090565b5b808211156200012157600081600090555060010162000107565b5090565b60006200013c62000136846200023e565b6200020a565b9050828152602081018484840111156200015557600080fd5b6200016284828562000271565b509392505050565b600082601f8301126200017c57600080fd5b81516200018e84826020860162000125565b91505092915050565b60008060408385031215620001ab57600080fd5b600083015167ffffffffffffffff811115620001c657600080fd5b620001d4858286016200016a565b925050602083015167ffffffffffffffff811115620001f257600080fd5b62000200858286016200016a565b9150509250929050565b6000604051905081810181811067ffffffffffffffff821117156200023457620002336200030c565b5b8060405250919050565b600067ffffffffffffffff8211156200025c576200025b6200030c565b5b601f19601f8301169050602081019050919050565b60005b838110156200029157808201518184015260208101905062000274565b83811115620002a1576000848401525b50505050565b60006002820490506001821680620002c057607f821691505b60208210811415620002d757620002d6620002dd565b5b50919050565b7f4e487b7100000000000000000000000000000000000000000000000000000000600052602260045260246000fd5b7f4e487b7100000000000000000000000000000000000000000000000000000000600052604160045260246000fd5b611598806200034b6000396000f3fe608060405234801561001057600080fd5b50600436106100cf5760003560e01c8063395093511161008c57806395d89b411161006657806395d89b4114610214578063a457c2d714610232578063a9059cbb14610262578063dd62ed3e14610292576100cf565b806339509351146101985780636353586b146101c857806370a08231146101e4576100cf565b806306fdde03146100d4578063095ea7b3146100f257806318160ddd1461012257806323b872dd14610140578063313ce567146101705780633884d6351461018e575b600080fd5b6100dc6102c2565b6040516100e99190611221565b60405180910390f35b61010c60048036038101906101079190610e1a565b610354565b6040516101199190611206565b60405180910390f35b61012a610377565b6040516101379190611363565b60405180910390f35b61015a60048036038101906101559190610dcb565b610381565b6040516101679190611206565b60405180910390f35b6101786103b0565b604051610185919061137e565b60405180910390f35b6101966103b9565b005b6101b260048036038101906101ad9190610e1a565b6104b2565b6040516101bf9190611206565b60405180910390f35b6101e260048036038101906101dd9190610d66565b6104e9565b005b6101fe60048036038101906101f99190610d66565b6104f7565b60405161020b9190611363565b60405180910390f35b61021c61053f565b6040516102299190611221565b60405180910390f35b61024c60048036038101906102479190610e1a565b6105d1565b6040516102599190611206565b60405180910390f35b61027c60048036038101906102779190610e1a565b610648565b6040516102899190611206565b60405180910390f35b6102ac60048036038101906102a79190610d8f565b61066b565b6040516102b99190611363565b60405180910390f35b6060600380546102d190611493565b80601f01602080910402602001604051908101604052809291908181526020018280546102fd90611493565b801561034a5780601f1061031f5761010080835404028352916020019161034a565b820191906000526020600020905b81548152906001019060200180831161032d57829003601f168201915b5050505050905090565b60008061035f6106f2565b905061036c8185856106fa565b600191505092915050565b6000600254905090565b60008061038c6106f2565b90506103998582856108c5565b6103a4858585610951565b60019150509392505050565b60006012905090565b60001515600560003373ffffffffffffffffffffffffffffffffffffffff1673ffffffffffffffffffffffffffffffffffffffff16815260200190815260200160002060009054906101000a900460ff1615151461044c576040517f08c379a000000000000000000000000000000000000000000000000000000000815260040161044390611283565b60405180910390fd5b61045833612710610bd2565b6001600560003373ffffffffffffffffffffffffffffffffffffffff1673ffffffffffffffffffffffffffffffffffffffff16815260200190815260200160002060006101000a81548160ff021916908315150217905550565b6000806104bd6106f2565b90506104de8185856104cf858961066b565b6104d991906113b5565b6106fa565b600191505092915050565b6104f481600a610bd2565b50565b60008060008373ffffffffffffffffffffffffffffffffffffffff1673ffffffffffffffffffffffffffffffffffffffff168152602001908152602001600020549050919050565b60606004805461054e90611493565b80601f016020809104026020016040519081016040528092919081815260200182805461057a90611493565b80156105c75780601f1061059c576101008083540402835291602001916105c7565b820191906000526020600020905b8154815290600101906020018083116105aa57829003601f168201915b5050505050905090565b6000806105dc6106f2565b905060006105ea828661066b565b90508381101561062f576040517f08c379a000000000000000000000000000000000000000000000000000000000815260040161062690611323565b60405180910390fd5b61063c82868684036106fa565b60019250505092915050565b6000806106536106f2565b9050610660818585610951565b600191505092915050565b6000600160008473ffffffffffffffffffffffffffffffffffffffff1673ffffffffffffffffffffffffffffffffffffffff16815260200190815260200160002060008373ffffffffffffffffffffffffffffffffffffffff1673ffffffffffffffffffffffffffffffffffffffff16815260200190815260200160002054905092915050565b600033905090565b600073ffffffffffffffffffffffffffffffffffffffff168373ffffffffffffffffffffffffffffffffffffffff16141561076a576040517f08c379a000000000000000000000000000000000000000000000000000000000815260040161076190611303565b60405180910390fd5b600073ffffffffffffffffffffffffffffffffffffffff168273ffffffffffffffffffffffffffffffffffffffff1614156107da576040517f08c379a00000000000000000000000000000000000000000000000000000000081526004016107d190611263565b60405180910390fd5b80600160008573ffffffffffffffffffffffffffffffffffffffff1673ffffffffffffffffffffffffffffffffffffffff16815260200190815260200160002060008473ffffffffffffffffffffffffffffffffffffffff1673ffffffffffffffffffffffffffffffffffffffff168152602001908152602001600020819055508173ffffffffffffffffffffffffffffffffffffffff168373ffffffffffffffffffffffffffffffffffffffff167f8c5be1e5ebec7d5bd14f71427d1e84f3dd0314c0f7b2291e5b200ac8c7c3b925836040516108b89190611363565b60405180910390a3505050565b60006108d1848461066b565b90507fffffffffffffffffffffffffffffffffffffffffffffffffffffffffffffffff811461094b578181101561093d576040517f08c379a0000000000000000000000000000000000000000000000000000000008152600401610934906112a3565b60405180910390fd5b61094a84848484036106fa565b5b50505050565b600073ffffffffffffffffffffffffffffffffffffffff168373ffffffffffffffffffffffffffffffffffffffff1614156109c1576040517f08c379a00000000000000000000000000000000000000000000000000000000081526004016109b8906112e3565b60405180910390fd5b600073ffffffffffffffffffffffffffffffffffffffff168273ffffffffffffffffffffffffffffffffffffffff161415610a31576040517f08c379a0000000000000000000000000000000000000000000000000000000008152600401610a2890611243565b60405180910390fd5b610a3c838383610d32565b60008060008573ffffffffffffffffffffffffffffffffffffffff1673ffffffffffffffffffffffffffffffffffffffff16815260200190815260200160002054905081811015610ac2576040517f08c379a0000000000000000000000000000000000000000000000000000000008152600401610ab9906112c3565b60405180910390fd5b8181036000808673ffffffffffffffffffffffffffffffffffffffff1673ffffffffffffffffffffffffffffffffffffffff16815260200190815260200160002081905550816000808573ffffffffffffffffffffffffffffffffffffffff1673ffffffffffffffffffffffffffffffffffffffff1681526020019081526020016000206000828254610b5591906113b5565b925050819055508273ffffffffffffffffffffffffffffffffffffffff168473ffffffffffffffffffffffffffffffffffffffff167fddf252ad1be2c89b69c2b068fc378daa952ba7f163c4a11628f55a4df523b3ef84604051610bb99190611363565b60405180910390a3610bcc848484610d37565b50505050565b600073ffffffffffffffffffffffffffffffffffffffff168273ffffffffffffffffffffffffffffffffffffffff161415610c42576040517f08c379a0000000000000000000000000000000000000000000000000000000008152600401610c3990611343565b60405180910390fd5b610c4e60008383610d32565b8060026000828254610c6091906113b5565b92505081905550806000808473ffffffffffffffffffffffffffffffffffffffff1673ffffffffffffffffffffffffffffffffffffffff1681526020019081526020016000206000828254610cb591906113b5565b925050819055508173ffffffffffffffffffffffffffffffffffffffff16600073ffffffffffffffffffffffffffffffffffffffff167fddf252ad1be2c89b69c2b068fc378daa952ba7f163c4a11628f55a4df523b3ef83604051610d1a9190611363565b60405180910390a3610d2e60008383610d37565b5050565b505050565b505050565b600081359050610d4b81611534565b92915050565b600081359050610d608161154b565b92915050565b600060208284031215610d7857600080fd5b6000610d8684828501610d3c565b91505092915050565b60008060408385031215610da257600080fd5b6000610db085828601610d3c565b9250506020610dc185828601610d3c565b9150509250929050565b600080600060608486031215610de057600080fd5b6000610dee86828701610d3c565b9350506020610dff86828701610d3c565b9250506040610e1086828701610d51565b9150509250925092565b60008060408385031215610e2d57600080fd5b6000610e3b85828601610d3c565b9250506020610e4c85828601610d51565b9150509250929050565b610e5f8161141d565b82525050565b6000610e7082611399565b610e7a81856113a4565b9350610e8a818560208601611460565b610e9381611523565b840191505092915050565b6000610eab6023836113a4565b91507f45524332303a207472616e7366657220746f20746865207a65726f206164647260008301527f65737300000000000000000000000000000000000000000000000000000000006020830152604082019050919050565b6000610f116022836113a4565b91507f45524332303a20617070726f766520746f20746865207a65726f20616464726560008301527f73730000000000000000000000000000000000000000000000000000000000006020830152604082019050919050565b6000610f776025836113a4565b91507f5468697320757365722068617320636c61696d65642061697264726f7020616c60008301527f72656164790000000000000000000000000000000000000000000000000000006020830152604082019050919050565b6000610fdd601d836113a4565b91507f45524332303a20696e73756666696369656e7420616c6c6f77616e63650000006000830152602082019050919050565b600061101d6026836113a4565b91507f45524332303a207472616e7366657220616d6f756e742065786365656473206260008301527f616c616e636500000000000000000000000000000000000000000000000000006020830152604082019050919050565b60006110836025836113a4565b91507f45524332303a207472616e736665722066726f6d20746865207a65726f20616460008301527f64726573730000000000000000000000000000000000000000000000000000006020830152604082019050919050565b60006110e96024836113a4565b91507f45524332303a20617070726f76652066726f6d20746865207a65726f2061646460008301527f72657373000000000000000000000000000000000000000000000000000000006020830152604082019050919050565b600061114f6025836113a4565b91507f45524332303a2064656372656173656420616c6c6f77616e63652062656c6f7760008301527f207a65726f0000000000000000000000000000000000000000000000000000006020830152604082019050919050565b60006111b5601f836113a4565b91507f45524332303a206d696e7420746f20746865207a65726f2061646472657373006000830152602082019050919050565b6111f181611449565b82525050565b61120081611453565b82525050565b600060208201905061121b6000830184610e56565b92915050565b6000602082019050818103600083015261123b8184610e65565b905092915050565b6000602082019050818103600083015261125c81610e9e565b9050919050565b6000602082019050818103600083015261127c81610f04565b9050919050565b6000602082019050818103600083015261129c81610f6a565b9050919050565b600060208201905081810360008301526112bc81610fd0565b9050919050565b600060208201905081810360008301526112dc81611010565b9050919050565b600060208201905081810360008301526112fc81611076565b9050919050565b6000602082019050818103600083015261131c816110dc565b9050919050565b6000602082019050818103600083015261133c81611142565b9050919050565b6000602082019050818103600083015261135c816111a8565b9050919050565b600060208201905061137860008301846111e8565b92915050565b600060208201905061139360008301846111f7565b92915050565b600081519050919050565b600082825260208201905092915050565b60006113c082611449565b91506113cb83611449565b9250827fffffffffffffffffffffffffffffffffffffffffffffffffffffffffffffffff03821115611400576113ff6114c5565b5b828201905092915050565b600061141682611429565b9050919050565b60008115159050919050565b600073ffffffffffffffffffffffffffffffffffffffff82169050919050565b6000819050919050565b600060ff82169050919050565b60005b8381101561147e578082015181840152602081019050611463565b8381111561148d576000848401525b50505050565b600060028204905060018216806114ab57607f821691505b602082108114156114bf576114be6114f4565b5b50919050565b7f4e487b7100000000000000000000000000000000000000000000000000000000600052601160045260246000fd5b7f4e487b7100000000000000000000000000000000000000000000000000000000600052602260045260246000fd5b6000601f19601f8301169050919050565b61153d8161140b565b811461154857600080fd5b50565b61155481611449565b811461155f57600080fd5b5056fea26469706673582212200e349eca594ced0d55e0c166fd906369f4fea51478bc1e96227d64502450428364736f6c63430008000033",
  "linkReferences": {},
  "deployedLinkReferences": {}
}