{
  "_format": "hh-sol-artifact-1",
  "contractName": "StudentSocietyDAO",
  "sourceName": "contracts/Lottery.sol",
  "abi": [
    {
      "inputs": [],
      "stateMutability": "nonpayable",
      "type": "constructor"
    },
    {
      "anonymous": false,
      "inputs": [
        {
          "indexed": false,
          "internalType": "uint32",
          "name": "proposalIndex",
          "type": "uint32"
        }
      ],
      "name": "ProposalInitiated",
      "type": "event"
    },
    {
      "inputs": [
        {
          "internalType": "uint32",
          "name": "proindex",
          "type": "uint32"
        }
      ],
      "name": "approve",
      "outputs": [],
      "stateMutability": "nonpayable",
      "type": "function"
    },
    {
      "inputs": [],
      "name": "cons",
      "outputs": [
        {
          "internalType": "uint32",
          "name": "",
          "type": "uint32"
        }
      ],
      "stateMutability": "view",
      "type": "function"
    },
    {
      "inputs": [],
      "name": "helloworld",
      "outputs": [
        {
          "internalType": "string",
          "name": "",
          "type": "string"
        }
      ],
      "stateMutability": "pure",
      "type": "function"
    },
    {
      "inputs": [],
      "name": "init",
      "outputs": [],
      "stateMutability": "nonpayable",
      "type": "function"
    },
    {
      "inputs": [],
      "name": "manager",
      "outputs": [
        {
          "internalType": "address",
          "name": "",
          "type": "address"
        }
      ],
      "stateMutability": "view",
      "type": "function"
    },
    {
      "inputs": [
        {
          "internalType": "uint32",
          "name": "proindex",
          "type": "uint32"
        }
      ],
      "name": "object",
      "outputs": [],
      "stateMutability": "nonpayable",
      "type": "function"
    },
    {
      "inputs": [],
      "name": "proposal_num",
      "outputs": [
        {
          "internalType": "uint32",
          "name": "",
          "type": "uint32"
        }
      ],
      "stateMutability": "view",
      "type": "function"
    },
    {
      "inputs": [
        {
          "internalType": "string",
          "name": "n",
          "type": "string"
        }
      ],
      "name": "propose",
      "outputs": [],
      "stateMutability": "nonpayable",
      "type": "function"
    },
    {
      "inputs": [],
      "name": "reward",
      "outputs": [],
      "stateMutability": "nonpayable",
      "type": "function"
    },
    {
      "inputs": [],
      "name": "votelimit",
      "outputs": [
        {
          "internalType": "uint32",
          "name": "",
          "type": "uint32"
        }
      ],
      "stateMutability": "view",
      "type": "function"
    },
    {
      "inputs": [
        {
          "internalType": "address",
          "name": "",
          "type": "address"
        }
      ],
      "name": "voters",
      "outputs": [
        {
          "internalType": "uint32",
          "name": "votenum",
          "type": "uint32"
        },
        {
          "internalType": "address",
          "name": "voter",
          "type": "address"
        }
      ],
      "stateMutability": "view",
      "type": "function"
    }
  ],
  "bytecode": "0x60806040523480156200001157600080fd5b506040516200002090620000cf565b6200002b9062000161565b604051809103906000f08015801562000048573d6000803e3d6000fd5b506000806101000a81548173ffffffffffffffffffffffffffffffffffffffff021916908373ffffffffffffffffffffffffffffffffffffffff16021790555033600260006101000a81548173ffffffffffffffffffffffffffffffffffffffff021916908373ffffffffffffffffffffffffffffffffffffffff160217905550620001a9565b61189e806200159d83390190565b6000620000ec60048362000198565b91507f6e616d65000000000000000000000000000000000000000000000000000000006000830152602082019050919050565b60006200012e60068362000198565b91507f73796d626f6c00000000000000000000000000000000000000000000000000006000830152602082019050919050565b600060408201905081810360008301526200017c81620000dd565b9050818103602083015262000191816200011f565b9050919050565b600082825260208201905092915050565b6113e480620001b96000396000f3fe608060405234801561001057600080fd5b50600436106100a95760003560e01c8063a3ec138d11610071578063a3ec138d14610130578063aa98df3914610161578063d2c0ec0e1461017d578063d98be4fd1461019b578063e1c7392a146101b7578063fe0f4ff4146101c1576100a9565b8063228cb733146100ae5780632f2f4859146100b8578063465c9df4146100d6578063481c6a75146100f457806359d7121914610112575b600080fd5b6100b66101dd565b005b6100c06103f9565b6040516100cd9190610fc7565b60405180910390f35b6100de610436565b6040516100eb9190611029565b60405180910390f35b6100fc61043b565b6040516101099190610f4c565b60405180910390f35b61011a610461565b6040516101279190611029565b60405180910390f35b61014a60048036038101906101459190610d75565b610466565b604051610158929190611044565b60405180910390f35b61017b60048036038101906101769190610dc7565b6104ba565b005b6101856107ec565b6040516101929190611029565b60405180910390f35b6101b560048036038101906101b09190610e08565b610802565b005b6101bf6109a4565b005b6101db60048036038101906101d69190610e08565b610a89565b005b600260009054906101000a900473ffffffffffffffffffffffffffffffffffffffff1673ffffffffffffffffffffffffffffffffffffffff163373ffffffffffffffffffffffffffffffffffffffff161461023757600080fd5b60005b600260149054906101000a900463ffffffff1663ffffffff168163ffffffff1610156103f6576000600160008363ffffffff1663ffffffff16815260200190815260200160002090508060020154816001015461029791906110ea565b421180156102bf575060008160040160009054906101000a900463ffffffff1663ffffffff16115b80156102e5575060008160040160049054906101000a900463ffffffff1663ffffffff16145b156103e25760018160040160046101000a81548163ffffffff021916908363ffffffff16021790555060008054906101000a900473ffffffffffffffffffffffffffffffffffffffff1673ffffffffffffffffffffffffffffffffffffffff1663a9059cbb8260000160049054906101000a900473ffffffffffffffffffffffffffffffffffffffff16600a6040518363ffffffff1660e01b815260040161038e929190610f9e565b602060405180830381600087803b1580156103a857600080fd5b505af11580156103bc573d6000803e3d6000fd5b505050506040513d601f19601f820116820180604052508101906103e09190610d9e565b505b5080806103ee9061129e565b91505061023a565b50565b60606040518060400160405280600b81526020017f68656c6c6f20776f726c64000000000000000000000000000000000000000000815250905090565b600a81565b600260009054906101000a900473ffffffffffffffffffffffffffffffffffffffff1681565b600a81565b60036020528060005260406000206000915090508060000160009054906101000a900463ffffffff16908060000160049054906101000a900473ffffffffffffffffffffffffffffffffffffffff16905082565b60008054906101000a900473ffffffffffffffffffffffffffffffffffffffff1673ffffffffffffffffffffffffffffffffffffffff166323b872dd3330600a6040518463ffffffff1660e01b815260040161051893929190610f67565b602060405180830381600087803b15801561053257600080fd5b505af1158015610546573d6000803e3d6000fd5b505050506040513d601f19601f8201168201806040525081019061056a9190610d9e565b50600260149054906101000a900463ffffffff1660016000600260149054906101000a900463ffffffff1663ffffffff1663ffffffff16815260200190815260200160002060000160006101000a81548163ffffffff021916908363ffffffff1602179055503360016000600260149054906101000a900463ffffffff1663ffffffff1663ffffffff16815260200190815260200160002060000160046101000a81548173ffffffffffffffffffffffffffffffffffffffff021916908373ffffffffffffffffffffffffffffffffffffffff1602179055504260016000600260149054906101000a900463ffffffff1663ffffffff1663ffffffff1681526020019081526020016000206001018190555061271060016000600260149054906101000a900463ffffffff1663ffffffff1663ffffffff168152602001908152602001600020600201819055508060016000600260149054906101000a900463ffffffff1663ffffffff1663ffffffff16815260200190815260200160002060030190805190602001906106ff929190610c2b565b50600060016000600260149054906101000a900463ffffffff1663ffffffff1663ffffffff16815260200190815260200160002060040160006101000a81548163ffffffff021916908363ffffffff160217905550600060016000600260149054906101000a900463ffffffff1663ffffffff1663ffffffff16815260200190815260200160002060040160046101000a81548163ffffffff021916908363ffffffff1602179055506002601481819054906101000a900463ffffffff16809291906107ca9061129e565b91906101000a81548163ffffffff021916908363ffffffff1602179055505050565b600260149054906101000a900463ffffffff1681565b6000600360003373ffffffffffffffffffffffffffffffffffffffff1673ffffffffffffffffffffffffffffffffffffffff16815260200190815260200160002090506000600160008463ffffffff1663ffffffff168152602001908152602001600020905060148260000160009054906101000a900463ffffffff1663ffffffff16106108c5576040517f08c379a00000000000000000000000000000000000000000000000000000000081526004016108bc90611009565b60405180910390fd5b806002015481600101546108d991906110ea565b42111561091b576040517f08c379a000000000000000000000000000000000000000000000000000000000815260040161091290610fe9565b60405180910390fd5b60018260000160008282829054906101000a900463ffffffff1661093f9190611140565b92506101000a81548163ffffffff021916908363ffffffff16021790555060018160040160008282829054906101000a900463ffffffff16610981919061117a565b92506101000a81548163ffffffff021916908363ffffffff160217905550505050565b33600360003373ffffffffffffffffffffffffffffffffffffffff1673ffffffffffffffffffffffffffffffffffffffff16815260200190815260200160002060000160046101000a81548173ffffffffffffffffffffffffffffffffffffffff021916908373ffffffffffffffffffffffffffffffffffffffff1602179055506000600360003373ffffffffffffffffffffffffffffffffffffffff1673ffffffffffffffffffffffffffffffffffffffff16815260200190815260200160002060000160006101000a81548163ffffffff021916908363ffffffff160217905550565b6000600360003373ffffffffffffffffffffffffffffffffffffffff1673ffffffffffffffffffffffffffffffffffffffff16815260200190815260200160002090506000600160008463ffffffff1663ffffffff168152602001908152602001600020905060148260000160009054906101000a900463ffffffff1663ffffffff1610610b4c576040517f08c379a0000000000000000000000000000000000000000000000000000000008152600401610b4390611009565b60405180910390fd5b80600201548160010154610b6091906110ea565b421115610ba2576040517f08c379a0000000000000000000000000000000000000000000000000000000008152600401610b9990610fe9565b60405180910390fd5b60018260000160008282829054906101000a900463ffffffff16610bc69190611140565b92506101000a81548163ffffffff021916908363ffffffff16021790555060018160040160008282829054906101000a900463ffffffff16610c089190611140565b92506101000a81548163ffffffff021916908363ffffffff160217905550505050565b828054610c379061126c565b90600052602060002090601f016020900481019282610c595760008555610ca0565b82601f10610c7257805160ff1916838001178555610ca0565b82800160010185558215610ca0579182015b82811115610c9f578251825591602001919060010190610c84565b5b509050610cad9190610cb1565b5090565b5b80821115610cca576000816000905550600101610cb2565b5090565b6000610ce1610cdc8461109e565b61106d565b905082815260208101848484011115610cf957600080fd5b610d0484828561122a565b509392505050565b600081359050610d1b81611369565b92915050565b600081519050610d3081611380565b92915050565b600082601f830112610d4757600080fd5b8135610d57848260208601610cce565b91505092915050565b600081359050610d6f81611397565b92915050565b600060208284031215610d8757600080fd5b6000610d9584828501610d0c565b91505092915050565b600060208284031215610db057600080fd5b6000610dbe84828501610d21565b91505092915050565b600060208284031215610dd957600080fd5b600082013567ffffffffffffffff811115610df357600080fd5b610dff84828501610d36565b91505092915050565b600060208284031215610e1a57600080fd5b6000610e2884828501610d60565b91505092915050565b610e3a816111ae565b82525050565b610e4981611206565b82525050565b6000610e5a826110ce565b610e6481856110d9565b9350610e74818560208601611239565b610e7d81611358565b840191505092915050565b6000610e956011836110d9565b91507f566f74696e672074696d652069732075700000000000000000000000000000006000830152602082019050919050565b6000610ed5602b836110d9565b91507f546865206e756d626572206f6620766f7465732065786365656473207468652060008301527f7570706572206c696d69740000000000000000000000000000000000000000006020830152604082019050919050565b610f3781611218565b82525050565b610f46816111f6565b82525050565b6000602082019050610f616000830184610e31565b92915050565b6000606082019050610f7c6000830186610e31565b610f896020830185610e31565b610f966040830184610f2e565b949350505050565b6000604082019050610fb36000830185610e31565b610fc06020830184610e40565b9392505050565b60006020820190508181036000830152610fe18184610e4f565b905092915050565b6000602082019050818103600083015261100281610e88565b9050919050565b6000602082019050818103600083015261102281610ec8565b9050919050565b600060208201905061103e6000830184610f3d565b92915050565b60006040820190506110596000830185610f3d565b6110666020830184610e31565b9392505050565b6000604051905081810181811067ffffffffffffffff8211171561109457611093611329565b5b8060405250919050565b600067ffffffffffffffff8211156110b9576110b8611329565b5b601f19601f8301169050602081019050919050565b600081519050919050565b600082825260208201905092915050565b60006110f5826111ec565b9150611100836111ec565b9250827fffffffffffffffffffffffffffffffffffffffffffffffffffffffffffffffff03821115611135576111346112cb565b5b828201905092915050565b600061114b826111f6565b9150611156836111f6565b92508263ffffffff0382111561116f5761116e6112cb565b5b828201905092915050565b6000611185826111f6565b9150611190836111f6565b9250828210156111a3576111a26112cb565b5b828203905092915050565b60006111b9826111cc565b9050919050565b60008115159050919050565b600073ffffffffffffffffffffffffffffffffffffffff82169050919050565b6000819050919050565b600063ffffffff82169050919050565b6000611211826111ec565b9050919050565b6000611223826111f6565b9050919050565b82818337600083830152505050565b60005b8381101561125757808201518184015260208101905061123c565b83811115611266576000848401525b50505050565b6000600282049050600182168061128457607f821691505b60208210811415611298576112976112fa565b5b50919050565b60006112a9826111f6565b915063ffffffff8214156112c0576112bf6112cb565b5b600182019050919050565b7f4e487b7100000000000000000000000000000000000000000000000000000000600052601160045260246000fd5b7f4e487b7100000000000000000000000000000000000000000000000000000000600052602260045260246000fd5b7f4e487b7100000000000000000000000000000000000000000000000000000000600052604160045260246000fd5b6000601f19601f8301169050919050565b611372816111ae565b811461137d57600080fd5b50565b611389816111c0565b811461139457600080fd5b50565b6113a0816111f6565b81146113ab57600080fd5b5056fea264697066735822122088a4142f32e652b7d445a1207a24f73b665088170ef588fc5d341a8d3547522b64736f6c6343000800003360806040523480156200001157600080fd5b506040516200189e3803806200189e833981810160405281019062000037919062000197565b818181600390805190602001906200005192919062000075565b5080600490805190602001906200006a92919062000075565b50505050506200033b565b8280546200008390620002a7565b90600052602060002090601f016020900481019282620000a75760008555620000f3565b82601f10620000c257805160ff1916838001178555620000f3565b82800160010185558215620000f3579182015b82811115620000f2578251825591602001919060010190620000d5565b5b50905062000102919062000106565b5090565b5b808211156200012157600081600090555060010162000107565b5090565b60006200013c62000136846200023e565b6200020a565b9050828152602081018484840111156200015557600080fd5b6200016284828562000271565b509392505050565b600082601f8301126200017c57600080fd5b81516200018e84826020860162000125565b91505092915050565b60008060408385031215620001ab57600080fd5b600083015167ffffffffffffffff811115620001c657600080fd5b620001d4858286016200016a565b925050602083015167ffffffffffffffff811115620001f257600080fd5b62000200858286016200016a565b9150509250929050565b6000604051905081810181811067ffffffffffffffff821117156200023457620002336200030c565b5b8060405250919050565b600067ffffffffffffffff8211156200025c576200025b6200030c565b5b601f19601f8301169050602081019050919050565b60005b838110156200029157808201518184015260208101905062000274565b83811115620002a1576000848401525b50505050565b60006002820490506001821680620002c057607f821691505b60208210811415620002d757620002d6620002dd565b5b50919050565b7f4e487b7100000000000000000000000000000000000000000000000000000000600052602260045260246000fd5b7f4e487b7100000000000000000000000000000000000000000000000000000000600052604160045260246000fd5b611553806200034b6000396000f3fe608060405234801561001057600080fd5b50600436106100b45760003560e01c80634e71d92d116100715780634e71d92d146101a357806370a08231146101ad57806395d89b41146101dd578063a457c2d7146101fb578063a9059cbb1461022b578063dd62ed3e1461025b576100b4565b806306fdde03146100b9578063095ea7b3146100d757806318160ddd1461010757806323b872dd14610125578063313ce567146101555780633950935114610173575b600080fd5b6100c161028b565b6040516100ce91906111dc565b60405180910390f35b6100f160048036038101906100ec9190610dd5565b61031d565b6040516100fe91906111c1565b60405180910390f35b61010f610340565b60405161011c919061131e565b60405180910390f35b61013f600480360381019061013a9190610d86565b61034a565b60405161014c91906111c1565b60405180910390f35b61015d610379565b60405161016a9190611339565b60405180910390f35b61018d60048036038101906101889190610dd5565b610382565b60405161019a91906111c1565b60405180910390f35b6101ab6103b9565b005b6101c760048036038101906101c29190610d21565b6104b2565b6040516101d4919061131e565b60405180910390f35b6101e56104fa565b6040516101f291906111dc565b60405180910390f35b61021560048036038101906102109190610dd5565b61058c565b60405161022291906111c1565b60405180910390f35b61024560048036038101906102409190610dd5565b610603565b60405161025291906111c1565b60405180910390f35b61027560048036038101906102709190610d4a565b610626565b604051610282919061131e565b60405180910390f35b60606003805461029a9061144e565b80601f01602080910402602001604051908101604052809291908181526020018280546102c69061144e565b80156103135780601f106102e857610100808354040283529160200191610313565b820191906000526020600020905b8154815290600101906020018083116102f657829003601f168201915b5050505050905090565b6000806103286106ad565b90506103358185856106b5565b600191505092915050565b6000600254905090565b6000806103556106ad565b9050610362858285610880565b61036d85858561090c565b60019150509392505050565b60006012905090565b60008061038d6106ad565b90506103ae81858561039f8589610626565b6103a99190611370565b6106b5565b600191505092915050565b60001515600560003373ffffffffffffffffffffffffffffffffffffffff1673ffffffffffffffffffffffffffffffffffffffff16815260200190815260200160002060009054906101000a900460ff1615151461044c576040517f08c379a00000000000000000000000000000000000000000000000000000000081526004016104439061123e565b60405180910390fd5b61045833612710610b8d565b6001600560003373ffffffffffffffffffffffffffffffffffffffff1673ffffffffffffffffffffffffffffffffffffffff16815260200190815260200160002060006101000a81548160ff021916908315150217905550565b60008060008373ffffffffffffffffffffffffffffffffffffffff1673ffffffffffffffffffffffffffffffffffffffff168152602001908152602001600020549050919050565b6060600480546105099061144e565b80601f01602080910402602001604051908101604052809291908181526020018280546105359061144e565b80156105825780601f1061055757610100808354040283529160200191610582565b820191906000526020600020905b81548152906001019060200180831161056557829003601f168201915b5050505050905090565b6000806105976106ad565b905060006105a58286610626565b9050838110156105ea576040517f08c379a00000000000000000000000000000000000000000000000000000000081526004016105e1906112de565b60405180910390fd5b6105f782868684036106b5565b60019250505092915050565b60008061060e6106ad565b905061061b81858561090c565b600191505092915050565b6000600160008473ffffffffffffffffffffffffffffffffffffffff1673ffffffffffffffffffffffffffffffffffffffff16815260200190815260200160002060008373ffffffffffffffffffffffffffffffffffffffff1673ffffffffffffffffffffffffffffffffffffffff16815260200190815260200160002054905092915050565b600033905090565b600073ffffffffffffffffffffffffffffffffffffffff168373ffffffffffffffffffffffffffffffffffffffff161415610725576040517f08c379a000000000000000000000000000000000000000000000000000000000815260040161071c906112be565b60405180910390fd5b600073ffffffffffffffffffffffffffffffffffffffff168273ffffffffffffffffffffffffffffffffffffffff161415610795576040517f08c379a000000000000000000000000000000000000000000000000000000000815260040161078c9061121e565b60405180910390fd5b80600160008573ffffffffffffffffffffffffffffffffffffffff1673ffffffffffffffffffffffffffffffffffffffff16815260200190815260200160002060008473ffffffffffffffffffffffffffffffffffffffff1673ffffffffffffffffffffffffffffffffffffffff168152602001908152602001600020819055508173ffffffffffffffffffffffffffffffffffffffff168373ffffffffffffffffffffffffffffffffffffffff167f8c5be1e5ebec7d5bd14f71427d1e84f3dd0314c0f7b2291e5b200ac8c7c3b92583604051610873919061131e565b60405180910390a3505050565b600061088c8484610626565b90507fffffffffffffffffffffffffffffffffffffffffffffffffffffffffffffffff811461090657818110156108f8576040517f08c379a00000000000000000000000000000000000000000000000000000000081526004016108ef9061125e565b60405180910390fd5b61090584848484036106b5565b5b50505050565b600073ffffffffffffffffffffffffffffffffffffffff168373ffffffffffffffffffffffffffffffffffffffff16141561097c576040517f08c379a00000000000000000000000000000000000000000000000000000000081526004016109739061129e565b60405180910390fd5b600073ffffffffffffffffffffffffffffffffffffffff168273ffffffffffffffffffffffffffffffffffffffff1614156109ec576040517f08c379a00000000000000000000000000000000000000000000000000000000081526004016109e3906111fe565b60405180910390fd5b6109f7838383610ced565b60008060008573ffffffffffffffffffffffffffffffffffffffff1673ffffffffffffffffffffffffffffffffffffffff16815260200190815260200160002054905081811015610a7d576040517f08c379a0000000000000000000000000000000000000000000000000000000008152600401610a749061127e565b60405180910390fd5b8181036000808673ffffffffffffffffffffffffffffffffffffffff1673ffffffffffffffffffffffffffffffffffffffff16815260200190815260200160002081905550816000808573ffffffffffffffffffffffffffffffffffffffff1673ffffffffffffffffffffffffffffffffffffffff1681526020019081526020016000206000828254610b109190611370565b925050819055508273ffffffffffffffffffffffffffffffffffffffff168473ffffffffffffffffffffffffffffffffffffffff167fddf252ad1be2c89b69c2b068fc378daa952ba7f163c4a11628f55a4df523b3ef84604051610b74919061131e565b60405180910390a3610b87848484610cf2565b50505050565b600073ffffffffffffffffffffffffffffffffffffffff168273ffffffffffffffffffffffffffffffffffffffff161415610bfd576040517f08c379a0000000000000000000000000000000000000000000000000000000008152600401610bf4906112fe565b60405180910390fd5b610c0960008383610ced565b8060026000828254610c1b9190611370565b92505081905550806000808473ffffffffffffffffffffffffffffffffffffffff1673ffffffffffffffffffffffffffffffffffffffff1681526020019081526020016000206000828254610c709190611370565b925050819055508173ffffffffffffffffffffffffffffffffffffffff16600073ffffffffffffffffffffffffffffffffffffffff167fddf252ad1be2c89b69c2b068fc378daa952ba7f163c4a11628f55a4df523b3ef83604051610cd5919061131e565b60405180910390a3610ce960008383610cf2565b5050565b505050565b505050565b600081359050610d06816114ef565b92915050565b600081359050610d1b81611506565b92915050565b600060208284031215610d3357600080fd5b6000610d4184828501610cf7565b91505092915050565b60008060408385031215610d5d57600080fd5b6000610d6b85828601610cf7565b9250506020610d7c85828601610cf7565b9150509250929050565b600080600060608486031215610d9b57600080fd5b6000610da986828701610cf7565b9350506020610dba86828701610cf7565b9250506040610dcb86828701610d0c565b9150509250925092565b60008060408385031215610de857600080fd5b6000610df685828601610cf7565b9250506020610e0785828601610d0c565b9150509250929050565b610e1a816113d8565b82525050565b6000610e2b82611354565b610e35818561135f565b9350610e4581856020860161141b565b610e4e816114de565b840191505092915050565b6000610e6660238361135f565b91507f45524332303a207472616e7366657220746f20746865207a65726f206164647260008301527f65737300000000000000000000000000000000000000000000000000000000006020830152604082019050919050565b6000610ecc60228361135f565b91507f45524332303a20617070726f766520746f20746865207a65726f20616464726560008301527f73730000000000000000000000000000000000000000000000000000000000006020830152604082019050919050565b6000610f3260258361135f565b91507f5468697320757365722068617320636c61696d65642061697264726f7020616c60008301527f72656164790000000000000000000000000000000000000000000000000000006020830152604082019050919050565b6000610f98601d8361135f565b91507f45524332303a20696e73756666696369656e7420616c6c6f77616e63650000006000830152602082019050919050565b6000610fd860268361135f565b91507f45524332303a207472616e7366657220616d6f756e742065786365656473206260008301527f616c616e636500000000000000000000000000000000000000000000000000006020830152604082019050919050565b600061103e60258361135f565b91507f45524332303a207472616e736665722066726f6d20746865207a65726f20616460008301527f64726573730000000000000000000000000000000000000000000000000000006020830152604082019050919050565b60006110a460248361135f565b91507f45524332303a20617070726f76652066726f6d20746865207a65726f2061646460008301527f72657373000000000000000000000000000000000000000000000000000000006020830152604082019050919050565b600061110a60258361135f565b91507f45524332303a2064656372656173656420616c6c6f77616e63652062656c6f7760008301527f207a65726f0000000000000000000000000000000000000000000000000000006020830152604082019050919050565b6000611170601f8361135f565b91507f45524332303a206d696e7420746f20746865207a65726f2061646472657373006000830152602082019050919050565b6111ac81611404565b82525050565b6111bb8161140e565b82525050565b60006020820190506111d66000830184610e11565b92915050565b600060208201905081810360008301526111f68184610e20565b905092915050565b6000602082019050818103600083015261121781610e59565b9050919050565b6000602082019050818103600083015261123781610ebf565b9050919050565b6000602082019050818103600083015261125781610f25565b9050919050565b6000602082019050818103600083015261127781610f8b565b9050919050565b6000602082019050818103600083015261129781610fcb565b9050919050565b600060208201905081810360008301526112b781611031565b9050919050565b600060208201905081810360008301526112d781611097565b9050919050565b600060208201905081810360008301526112f7816110fd565b9050919050565b6000602082019050818103600083015261131781611163565b9050919050565b600060208201905061133360008301846111a3565b92915050565b600060208201905061134e60008301846111b2565b92915050565b600081519050919050565b600082825260208201905092915050565b600061137b82611404565b915061138683611404565b9250827fffffffffffffffffffffffffffffffffffffffffffffffffffffffffffffffff038211156113bb576113ba611480565b5b828201905092915050565b60006113d1826113e4565b9050919050565b60008115159050919050565b600073ffffffffffffffffffffffffffffffffffffffff82169050919050565b6000819050919050565b600060ff82169050919050565b60005b8381101561143957808201518184015260208101905061141e565b83811115611448576000848401525b50505050565b6000600282049050600182168061146657607f821691505b6020821081141561147a576114796114af565b5b50919050565b7f4e487b7100000000000000000000000000000000000000000000000000000000600052601160045260246000fd5b7f4e487b7100000000000000000000000000000000000000000000000000000000600052602260045260246000fd5b6000601f19601f8301169050919050565b6114f8816113c6565b811461150357600080fd5b50565b61150f81611404565b811461151a57600080fd5b5056fea2646970667358221220bc0e4414654f6a2edd2695c34cf802bf5759a5eab4be16c1ccab96d12522664f64736f6c63430008000033",
  "linkReferences": {},
  "deployedLinkReferences": {}
}